:100000000C9434000C9449000C9449000C94490061
:100010000C9449000C9449000C9449000C9449003C
:100020000C9449000C9449000C9449000C9449002C
:100030000C9449000C9449000C9449000C9449001C
:100040000C9449000C9449000C9449000C9449000C
:100050000C9449000C9449000C9449000C944900FC
:100060000C9449000C94490011241FBECFEFD8E036
:10007000DEBFCDBF11E0A0E0B1E0ECE6F1E002C0F0
:1000800005900D92AC31B107D9F70E94A6000C94EF
:10009000B4000C94000085B98BB1877E8BB95D9A52
:1000A00082E08A95F1F75D9880E797E10197F1F793
:1000B000089585B95C988BB188628BB982E08A9586
:1000C000F1F75D9880ED97E00197F1F708958AB117
:1000D00088638AB98FEF84B980E49CE90197F1F7CE
:1000E00088E30E944B008CE00E944B0086E00E9457
:1000F0004B0081E00E944B0080E80E944B00089575
:10010000CF93DF93EC0102C00E94590089918823AC
:10011000D9F7DF91CF910895CF93DF93EA01813032
:1001200021F46F70862F806805C0823029F46F70CB
:10013000862F806C0E944B00CE010E948000DF91D0
:10014000CF91089581E00E944B0008950E946700BE
:1001500080E091E00E94800080EC0E944B0080E1F2
:0C01600091E00E948000FFCFF894FFCFD8
:10016C00456C656374726F6E696357494E475300F3
:0C017C0048656C6C6F20576F726C64005B
:00000001FF
