:100000000C9434000C943E000C943E000C943E0082
:100010000C943E000C943E000C943E000C943E0068
:100020000C943E000C943E000C943E000C943E0058
:100030000C943E000C943E000C943E000C943E0048
:100040000C943E000C943E000C943E000C943E0038
:100050000C943E000C943E000C943E000C943E0028
:100060000C943E000C943E0011241FBECFEFD8E04C
:10007000DEBFCDBF0E9440000C9469000C940000CC
:1000800082EC80937C0087E880937A008FEF8AB9B6
:100090005E9A84B5806884BD84B5836084BD85B56F
:1000A000836085BDFFCF82EC80937C0087E88093DE
:1000B0007A00089580917A00806480937A0080911C
:1000C0007A0086FDFCCF2091780030917900C9013B
:0600D0000895F894FFCF33
:00000001FF
