:100000000C9434000C943E000C943E000C943E0082
:100010000C943E000C943E000C943E000C943E0068
:100020000C943E000C943E000C943E000C943E0058
:100030000C943E000C943E000C943E000C943E0048
:100040000C943E000C943E000C943E000C943E0038
:100050000C943E000C943E000C943E000C943E0028
:100060000C943E000C943E0011241FBECFEFD8E04C
:10007000DEBFCDBF0E9440000C947F000C940000B6
:100080000E9445000E945B00FFCF82EC80937C00C1
:1000900087E880937A00089580917A008064809345
:1000A0007A0080917A0086FDFCCF20917800309113
:1000B0007900C90108958FEF8AB95E9A84B5806886
:1000C00084BD84B5836084BD85B5836085BD089596
:1000D0009C018F3F910509F010F481E006C080502B
:1000E00091408B58914018F484E687BD08952B58B1
:1000F00032402657314010F484EB87BD0895F894C0
:02010000FFCF2F
:00000001FF
